{
  "contractName": "Salary",
  "abi": [
    {
      "inputs": [],
      "payable": false,
      "stateMutability": "nonpayable",
      "type": "constructor"
    },
    {
      "anonymous": false,
      "inputs": [
        {
          "indexed": true,
          "internalType": "address",
          "name": "_to",
          "type": "address"
        }
      ],
      "name": "PaySalary",
      "type": "event"
    },
    {
      "anonymous": false,
      "inputs": [
        {
          "indexed": true,
          "internalType": "address",
          "name": "_to",
          "type": "address"
        },
        {
          "indexed": false,
          "internalType": "uint256",
          "name": "_value1",
          "type": "uint256"
        },
        {
          "indexed": false,
          "internalType": "uint256",
          "name": "_value2",
          "type": "uint256"
        }
      ],
      "name": "SetBalance",
      "type": "event"
    },
    {
      "anonymous": false,
      "inputs": [
        {
          "indexed": true,
          "internalType": "address",
          "name": "_to",
          "type": "address"
        },
        {
          "indexed": false,
          "internalType": "uint256",
          "name": "_value1",
          "type": "uint256"
        },
        {
          "indexed": false,
          "internalType": "uint256",
          "name": "_value2",
          "type": "uint256"
        }
      ],
      "name": "SetSalary",
      "type": "event"
    },
    {
      "anonymous": false,
      "inputs": [
        {
          "indexed": true,
          "internalType": "address",
          "name": "_to",
          "type": "address"
        },
        {
          "indexed": false,
          "internalType": "uint256",
          "name": "_value",
          "type": "uint256"
        }
      ],
      "name": "TakeMoney",
      "type": "event"
    },
    {
      "constant": true,
      "inputs": [
        {
          "internalType": "address",
          "name": "",
          "type": "address"
        }
      ],
      "name": "balances",
      "outputs": [
        {
          "internalType": "uint256",
          "name": "c",
          "type": "uint256"
        },
        {
          "internalType": "uint256",
          "name": "d",
          "type": "uint256"
        }
      ],
      "payable": false,
      "stateMutability": "view",
      "type": "function"
    },
    {
      "constant": true,
      "inputs": [],
      "name": "generator",
      "outputs": [
        {
          "internalType": "uint256",
          "name": "",
          "type": "uint256"
        }
      ],
      "payable": false,
      "stateMutability": "view",
      "type": "function"
    },
    {
      "constant": true,
      "inputs": [],
      "name": "prime",
      "outputs": [
        {
          "internalType": "uint256",
          "name": "",
          "type": "uint256"
        }
      ],
      "payable": false,
      "stateMutability": "view",
      "type": "function"
    },
    {
      "constant": true,
      "inputs": [
        {
          "internalType": "address",
          "name": "",
          "type": "address"
        }
      ],
      "name": "publicKey",
      "outputs": [
        {
          "internalType": "uint256",
          "name": "",
          "type": "uint256"
        }
      ],
      "payable": false,
      "stateMutability": "view",
      "type": "function"
    },
    {
      "constant": true,
      "inputs": [
        {
          "internalType": "address",
          "name": "",
          "type": "address"
        }
      ],
      "name": "salary",
      "outputs": [
        {
          "internalType": "uint256",
          "name": "c",
          "type": "uint256"
        },
        {
          "internalType": "uint256",
          "name": "d",
          "type": "uint256"
        }
      ],
      "payable": false,
      "stateMutability": "view",
      "type": "function"
    },
    {
      "constant": true,
      "inputs": [
        {
          "internalType": "address",
          "name": "_addr",
          "type": "address"
        }
      ],
      "name": "checkBalance",
      "outputs": [
        {
          "internalType": "uint256",
          "name": "_c",
          "type": "uint256"
        },
        {
          "internalType": "uint256",
          "name": "_d",
          "type": "uint256"
        }
      ],
      "payable": false,
      "stateMutability": "view",
      "type": "function"
    },
    {
      "constant": false,
      "inputs": [
        {
          "internalType": "address",
          "name": "_addr",
          "type": "address"
        },
        {
          "internalType": "uint256",
          "name": "_c",
          "type": "uint256"
        },
        {
          "internalType": "uint256",
          "name": "_d",
          "type": "uint256"
        },
        {
          "internalType": "uint256",
          "name": "_h",
          "type": "uint256"
        }
      ],
      "name": "setBalance",
      "outputs": [
        {
          "internalType": "bool",
          "name": "",
          "type": "bool"
        }
      ],
      "payable": false,
      "stateMutability": "nonpayable",
      "type": "function"
    },
    {
      "constant": true,
      "inputs": [
        {
          "internalType": "address",
          "name": "_addr",
          "type": "address"
        }
      ],
      "name": "checkSalary",
      "outputs": [
        {
          "internalType": "uint256",
          "name": "_c",
          "type": "uint256"
        },
        {
          "internalType": "uint256",
          "name": "_d",
          "type": "uint256"
        }
      ],
      "payable": false,
      "stateMutability": "view",
      "type": "function"
    },
    {
      "constant": false,
      "inputs": [
        {
          "internalType": "address",
          "name": "_addr",
          "type": "address"
        },
        {
          "internalType": "uint256",
          "name": "_c",
          "type": "uint256"
        },
        {
          "internalType": "uint256",
          "name": "_d",
          "type": "uint256"
        }
      ],
      "name": "setSalary",
      "outputs": [
        {
          "internalType": "bool",
          "name": "",
          "type": "bool"
        }
      ],
      "payable": false,
      "stateMutability": "nonpayable",
      "type": "function"
    },
    {
      "constant": false,
      "inputs": [
        {
          "internalType": "address",
          "name": "_addr",
          "type": "address"
        }
      ],
      "name": "paySalary",
      "outputs": [
        {
          "internalType": "bool",
          "name": "",
          "type": "bool"
        }
      ],
      "payable": false,
      "stateMutability": "nonpayable",
      "type": "function"
    },
    {
      "constant": false,
      "inputs": [
        {
          "internalType": "address",
          "name": "_addr",
          "type": "address"
        },
        {
          "internalType": "uint256",
          "name": "_t",
          "type": "uint256"
        },
        {
          "internalType": "uint256[]",
          "name": "_proof",
          "type": "uint256[]"
        },
        {
          "internalType": "uint256[]",
          "name": "_cArray",
          "type": "uint256[]"
        },
        {
          "internalType": "uint256[]",
          "name": "_dArray",
          "type": "uint256[]"
        }
      ],
      "name": "takeMoney",
      "outputs": [
        {
          "internalType": "bool",
          "name": "",
          "type": "bool"
        }
      ],
      "payable": false,
      "stateMutability": "nonpayable",
      "type": "function"
    },
    {
      "constant": true,
      "inputs": [
        {
          "internalType": "address",
          "name": "_addr",
          "type": "address"
        },
        {
          "internalType": "uint256[]",
          "name": "_proof",
          "type": "uint256[]"
        },
        {
          "internalType": "uint256[]",
          "name": "_cArray",
          "type": "uint256[]"
        },
        {
          "internalType": "uint256[]",
          "name": "_dArray",
          "type": "uint256[]"
        },
        {
          "internalType": "uint256",
          "name": "_c",
          "type": "uint256"
        },
        {
          "internalType": "uint256",
          "name": "_d",
          "type": "uint256"
        }
      ],
      "name": "verifyRangeProof",
      "outputs": [
        {
          "internalType": "bool",
          "name": "result",
          "type": "bool"
        }
      ],
      "payable": false,
      "stateMutability": "view",
      "type": "function"
    },
    {
      "constant": true,
      "inputs": [
        {
          "internalType": "address",
          "name": "_addr",
          "type": "address"
        },
        {
          "internalType": "uint256",
          "name": "_p",
          "type": "uint256"
        },
        {
          "internalType": "uint256",
          "name": "_q",
          "type": "uint256"
        },
        {
          "internalType": "uint256",
          "name": "_mk",
          "type": "uint256"
        },
        {
          "internalType": "uint256",
          "name": "_proof1",
          "type": "uint256"
        },
        {
          "internalType": "uint256",
          "name": "_proof2",
          "type": "uint256"
        },
        {
          "internalType": "uint256",
          "name": "_proof3",
          "type": "uint256"
        }
      ],
      "name": "verifyMembership",
      "outputs": [
        {
          "internalType": "bool",
          "name": "",
          "type": "bool"
        }
      ],
      "payable": false,
      "stateMutability": "view",
      "type": "function"
    },
    {
      "constant": true,
      "inputs": [
        {
          "internalType": "uint256",
          "name": "_x",
          "type": "uint256"
        },
        {
          "internalType": "uint256",
          "name": "_y",
          "type": "uint256"
        }
      ],
      "name": "myHash",
      "outputs": [
        {
          "internalType": "uint256",
          "name": "",
          "type": "uint256"
        }
      ],
      "payable": false,
      "stateMutability": "pure",
      "type": "function"
    },
    {
      "constant": true,
      "inputs": [
        {
          "internalType": "uint256",
          "name": "_x",
          "type": "uint256"
        }
      ],
      "name": "toBytes",
      "outputs": [
        {
          "internalType": "bytes",
          "name": "b",
          "type": "bytes"
        }
      ],
      "payable": false,
      "stateMutability": "pure",
      "type": "function"
    }
  ],
  "bytecode": "0x608060405234801561001057600080fd5b5060008060003373ffffffffffffffffffffffffffffffffffffffff1673ffffffffffffffffffffffffffffffffffffffff1681526020019081526020016000206000018190555060008060003373ffffffffffffffffffffffffffffffffffffffff1673ffffffffffffffffffffffffffffffffffffffff168152602001908152602001600020600101819055506000600160003373ffffffffffffffffffffffffffffffffffffffff1673ffffffffffffffffffffffffffffffffffffffff168152602001908152602001600020600001819055506000600160003373ffffffffffffffffffffffffffffffffffffffff1673ffffffffffffffffffffffffffffffffffffffff168152602001908152602001600020600101819055506007600381905550620249f16004819055506116e6806101506000396000f3fe608060405234801561001057600080fd5b50600436106100f55760003560e01c80637afa1eed11610097578063888ade0a11610066578063888ade0a146108da578063abd73a5414610932578063bf83496314610991578063c7ee005e14610a0b576100f5565b80637afa1eed146105d45780637c9095c5146105f25780637ebe37971461081e5780638201f2961461088e576100f5565b806347b2028d116100d357806347b2028d146103d75780635f51522614610436578063614b493d14610495578063775a8f5e1461052d576100f5565b80630b402ebe146100fa5780630ea37aef1461031c57806327e235e314610378575b600080fd5b610302600480360360a081101561011057600080fd5b81019080803573ffffffffffffffffffffffffffffffffffffffff169060200190929190803590602001909291908035906020019064010000000081111561015757600080fd5b82018360208201111561016957600080fd5b8035906020019184602083028401116401000000008311171561018b57600080fd5b919080806020026020016040519081016040528093929190818152602001838360200280828437600081840152601f19601f820116905080830192505050505050509192919290803590602001906401000000008111156101eb57600080fd5b8201836020820111156101fd57600080fd5b8035906020019184602083028401116401000000008311171561021f57600080fd5b919080806020026020016040519081016040528093929190818152602001838360200280828437600081840152601f19601f8201169050808301925050505050505091929192908035906020019064010000000081111561027f57600080fd5b82018360208201111561029157600080fd5b803590602001918460208302840111640100000000831117156102b357600080fd5b919080806020026020016040519081016040528093929190818152602001838360200280828437600081840152601f19601f820116905080830192505050505050509192919290505050610a29565b604051808215151515815260200191505060405180910390f35b61035e6004803603602081101561033257600080fd5b81019080803573ffffffffffffffffffffffffffffffffffffffff169060200190929190505050610c16565b604051808215151515815260200191505060405180910390f35b6103ba6004803603602081101561038e57600080fd5b81019080803573ffffffffffffffffffffffffffffffffffffffff169060200190929190505050610e0e565b604051808381526020018281526020019250505060405180910390f35b610419600480360360208110156103ed57600080fd5b81019080803573ffffffffffffffffffffffffffffffffffffffff169060200190929190505050610e32565b604051808381526020018281526020019250505060405180910390f35b6104786004803603602081101561044c57600080fd5b81019080803573ffffffffffffffffffffffffffffffffffffffff169060200190929190505050610e56565b604051808381526020018281526020019250505060405180910390f35b610513600480360360e08110156104ab57600080fd5b81019080803573ffffffffffffffffffffffffffffffffffffffff169060200190929190803590602001909291908035906020019092919080359060200190929190803590602001909291908035906020019092919080359060200190929190505050610ee6565b604051808215151515815260200191505060405180910390f35b6105596004803603602081101561054357600080fd5b81019080803590602001909291905050506110c2565b6040518080602001828103825283818151815260200191508051906020019080838360005b8381101561059957808201518184015260208101905061057e565b50505050905090810190601f1680156105c65780820380516001836020036101000a031916815260200191505b509250505060405180910390f35b6105dc61116e565b6040518082815260200191505060405180910390f35b610804600480360360c081101561060857600080fd5b81019080803573ffffffffffffffffffffffffffffffffffffffff1690602001909291908035906020019064010000000081111561064557600080fd5b82018360208201111561065757600080fd5b8035906020019184602083028401116401000000008311171561067957600080fd5b919080806020026020016040519081016040528093929190818152602001838360200280828437600081840152601f19601f820116905080830192505050505050509192919290803590602001906401000000008111156106d957600080fd5b8201836020820111156106eb57600080fd5b8035906020019184602083028401116401000000008311171561070d57600080fd5b919080806020026020016040519081016040528093929190818152602001838360200280828437600081840152601f19601f8201169050808301925050505050505091929192908035906020019064010000000081111561076d57600080fd5b82018360208201111561077f57600080fd5b803590602001918460208302840111640100000000831117156107a157600080fd5b919080806020026020016040519081016040528093929190818152602001838360200280828437600081840152601f19601f8201169050808301925050505050505091929192908035906020019092919080359060200190929190505050611174565b604051808215151515815260200191505060405180910390f35b6108746004803603606081101561083457600080fd5b81019080803573ffffffffffffffffffffffffffffffffffffffff16906020019092919080359060200190929190803590602001909291905050506112b5565b604051808215151515815260200191505060405180910390f35b6108c4600480360360408110156108a457600080fd5b8101908080359060200190929190803590602001909291905050506113a6565b6040518082815260200191505060405180910390f35b61091c600480360360208110156108f057600080fd5b81019080803573ffffffffffffffffffffffffffffffffffffffff1690602001909291905050506113b3565b6040518082815260200191505060405180910390f35b6109746004803603602081101561094857600080fd5b81019080803573ffffffffffffffffffffffffffffffffffffffff1690602001909291905050506113cb565b604051808381526020018281526020019250505060405180910390f35b6109f1600480360360808110156109a757600080fd5b81019080803573ffffffffffffffffffffffffffffffffffffffff16906020019092919080359060200190929190803590602001909291908035906020019092919050505061145d565b604051808215151515815260200191505060405180910390f35b610a13611591565b6040518082815260200191505060405180910390f35b6000808511610aa0576040517f08c379a000000000000000000000000000000000000000000000000000000000815260040180806020018281038252601b8152602001807f4d6f6e65792073686f756c64206265206120706f7369746976652e000000000081525060200191505060405180910390fd5b60008060008873ffffffffffffffffffffffffffffffffffffffff1673ffffffffffffffffffffffffffffffffffffffff1681526020019081526020016000206000015490506000610b02610afa60035489600454611597565b600454611699565b905060045480610b0e57fe5b816000808b73ffffffffffffffffffffffffffffffffffffffff1673ffffffffffffffffffffffffffffffffffffffff16815260200190815260200160002060010154099050610b62888787878686611174565b15610c0657806000808a73ffffffffffffffffffffffffffffffffffffffff1673ffffffffffffffffffffffffffffffffffffffff168152602001908152602001600020600101819055508773ffffffffffffffffffffffffffffffffffffffff167fda55bc161f61953c91447a146006ad4921cc089b3b3ebc716664ef9e47266f27886040518082815260200191505060405180910390a2600192505050610c0d565b6000925050505b95945050505050565b600060045480610c2257fe5b600160008473ffffffffffffffffffffffffffffffffffffffff1673ffffffffffffffffffffffffffffffffffffffff168152602001908152602001600020600001546000808573ffffffffffffffffffffffffffffffffffffffff1673ffffffffffffffffffffffffffffffffffffffff16815260200190815260200160002060000154096000808473ffffffffffffffffffffffffffffffffffffffff1673ffffffffffffffffffffffffffffffffffffffff1681526020019081526020016000206000018190555060045480610cf757fe5b600160008473ffffffffffffffffffffffffffffffffffffffff1673ffffffffffffffffffffffffffffffffffffffff168152602001908152602001600020600101546000808573ffffffffffffffffffffffffffffffffffffffff1673ffffffffffffffffffffffffffffffffffffffff16815260200190815260200160002060010154096000808473ffffffffffffffffffffffffffffffffffffffff1673ffffffffffffffffffffffffffffffffffffffff168152602001908152602001600020600101819055508173ffffffffffffffffffffffffffffffffffffffff167fd7d07c6746242e3a94807f5fcdfe276b7bc086bfaf8ebc45a9ba69dcadc0ea5960405160405180910390a260019050919050565b60006020528060005260406000206000915090508060000154908060010154905082565b60016020528060005260406000206000915090508060000154908060010154905082565b6000806000808473ffffffffffffffffffffffffffffffffffffffff1673ffffffffffffffffffffffffffffffffffffffff168152602001908152602001600020600001546000808573ffffffffffffffffffffffffffffffffffffffff1673ffffffffffffffffffffffffffffffffffffffff1681526020019081526020016000206001015491509150915091565b600080610f40610f38600260008c73ffffffffffffffffffffffffffffffffffffffff1673ffffffffffffffffffffffffffffffffffffffff1681526020019081526020016000205487600454611597565b600454611699565b90506000610f5360035486600454611597565b905060045480610f5f57fe5b82820990506000610f738a87600454611597565b9050610f828988600454611597565b9250610f9083600454611699565b925060045480610f9c57fe5b83820990506000610fad83836113a6565b9050611006610ffe600260008f73ffffffffffffffffffffffffffffffffffffffff1673ffffffffffffffffffffffffffffffffffffffff1681526020019081526020016000205483600454611597565b600454611699565b9350600061101960035488600454611597565b90506004548061102557fe5b858209905060006110398d89600454611597565b905061104a6003548c600454611597565b955061105886600454611699565b95506004548061106457fe5b868d0995506110768684600454611597565b955061108486600454611699565b95506004548061109057fe5b868209905061109f82826113a6565b8a146110ac5760006110af565b60015b9650505050505050979650505050505050565b606060206040519080825280601f01601f1916602001820160405280156110f85781602001600182028038833980820191505090505b50905060008090505b60208110156111685780601f0360080260020a838161111c57fe5b0460f81b82828151811061112c57fe5b60200101907effffffffffffffffffffffffffffffffffffffffffffffffffffffffffffff1916908160001a9053508080600101915050611101565b50919050565b60035481565b600080600190506000600190506001925060008090505b601f811161126d576004548061119d57fe5b8882815181106111a957fe5b602002602001015184099250600454806111bf57fe5b8782815181106111cb57fe5b602002602001015183099150838015611260575061125f8a8983815181106111ef57fe5b602002602001015189848151811061120357fe5b60200260200101518460020a8d600387028151811061121e57fe5b60200260200101518e600160038902018151811061123857fe5b60200260200101518f600260038a02018151811061125257fe5b6020026020010151610ee6565b5b935060018101905061118b565b508280156112885750818514611284576000611287565b60015b5b92508280156112a457508084146112a05760006112a3565b60015b5b925082925050509695505050505050565b600082600160008673ffffffffffffffffffffffffffffffffffffffff1673ffffffffffffffffffffffffffffffffffffffff1681526020019081526020016000206000018190555081600160008673ffffffffffffffffffffffffffffffffffffffff1673ffffffffffffffffffffffffffffffffffffffff168152602001908152602001600020600101819055508373ffffffffffffffffffffffffffffffffffffffff167f70c22001aa542796dc91ca19cb337e7ea7d4fcf47d2b7ddcbc0ee3fd856c74798484604051808381526020018281526020019250505060405180910390a2600190509392505050565b6000818301905092915050565b60026020528060005260406000206000915090505481565b600080600160008473ffffffffffffffffffffffffffffffffffffffff1673ffffffffffffffffffffffffffffffffffffffff16815260200190815260200160002060000154600160008573ffffffffffffffffffffffffffffffffffffffff1673ffffffffffffffffffffffffffffffffffffffff1681526020019081526020016000206001015491509150915091565b6000836000808773ffffffffffffffffffffffffffffffffffffffff1673ffffffffffffffffffffffffffffffffffffffff16815260200190815260200160002060000181905550826000808773ffffffffffffffffffffffffffffffffffffffff1673ffffffffffffffffffffffffffffffffffffffff1681526020019081526020016000206001018190555081600260008773ffffffffffffffffffffffffffffffffffffffff1673ffffffffffffffffffffffffffffffffffffffff168152602001908152602001600020819055508473ffffffffffffffffffffffffffffffffffffffff167f301faec51960184067a8ff5dc1efc65fa6e11942352ff244bb4b3cecb5de8e3c8585604051808381526020018281526020019250505060405180910390a260019050949350505050565b60045481565b600080841180156115a9575060008310155b80156115b55750600082115b611627576040517f08c379a000000000000000000000000000000000000000000000000000000000815260040180806020018281038252601a8152602001807f782c792c7a2073686f756c6420626520706f736974697665732e00000000000081525060200191505060405180910390fd5b60008314156116395760019050611692565b600190506000849050600084905060008490506000600190505b82811161168a5760008184161461167257818061166c57fe5b84860994505b818061167a57fe5b8485099350600281029050611653565b508393505050505b9392505050565b60006116a9836002840384611597565b90509291505056fea265627a7a723158207480c77b202101fcb296c8614cefe1e899a5be94209a187959fd33e851c9e46a64736f6c634300050c0032",
  "source": "pragma solidity >=0.4.25 <0.6.2;\n\n\n// This is just a simple example of a salary-like contract.\ncontract Salary {\n\tstruct encrpyt_data{\n\t\tuint256 c;\n\t\tuint256 d;\n\t}\n\n\tmapping (address => encrpyt_data) public balances;\n\tmapping (address => encrpyt_data) public salary;\n\tmapping (address => uint256) public publicKey;\n\n\tuint256 public generator;\n\tuint256 public prime;\n\n\tevent SetBalance(address indexed _to, uint256 _value1, uint256 _value2);\n\tevent SetSalary(address indexed _to, uint256 _value1, uint256 _value2);\n\tevent PaySalary(address indexed _to);\n\tevent TakeMoney(address indexed _to, uint256 _value);\n\n\tconstructor() public {\n\t\tbalances[msg.sender].c = 0;\n\t\tbalances[msg.sender].d = 0;\n\t\tsalary[msg.sender].c = 0;\n\t\tsalary[msg.sender].d = 0;\n\t\t//For test here.\n\t\tgenerator = 7;\n\t\tprime = 150001;\n\t}\n\n\tfunction checkBalance(address _addr) public view returns(uint256 _c,uint256 _d) {\n\t\t//need some require such as publickey!=null\n\t\treturn (balances[_addr].c, balances[_addr].d);\n\t}\n\n\tfunction setBalance(address _addr,uint256 _c,uint256 _d,uint256 _h) public returns (bool){\n\t\tbalances[_addr].c = _c;\n\t\tbalances[_addr].d = _d;\n\t\tpublicKey[_addr] = _h;\t//Here we update the publickey in the set function\n\t\temit SetBalance(_addr,_c,_d);\n\t\treturn true;\n\t}\n\n\tfunction checkSalary(address _addr) public view returns(uint256 _c,uint256 _d) {\n\t\t//need some require such as publickey!=null\n\t\treturn (salary[_addr].c, salary[_addr].d);\n\t}\n\n\tfunction setSalary(address _addr,uint256 _c,uint256 _d) public returns (bool){\n\t\tsalary[_addr].c = _c;\n\t\tsalary[_addr].d = _d;\n\t\temit SetSalary(_addr,_c,_d);\n\t\treturn true;\n\t}\n\n\tfunction paySalary(address _addr) public returns (bool){\n\t\t//need some require such as publickey!=null\n\t\tbalances[_addr].c = mulmod(balances[_addr].c,salary[_addr].c,prime);\n\t\tbalances[_addr].d = mulmod(balances[_addr].d,salary[_addr].d,prime);\n\t\temit PaySalary(_addr);\n\t\treturn true;\n\t}\n\n\tfunction takeMoney(address _addr,uint256 _t, uint256[] memory _proof, uint256[] memory _cArray, uint256[] memory _dArray)\n\tpublic\n\treturns (bool){\n\t\trequire(_t>0,'Money should be a positive.');\n\t\tuint256 tmpC = balances[_addr].c;\n\t\tuint256 tmpD = modInverse(modExp(generator,_t,prime), prime);\n\t\ttmpD = mulmod(balances[_addr].d, tmpD, prime);\n\t\tif (verifyRangeProof(_addr, _proof, _cArray, _dArray,tmpC, tmpD)) {\n\t\t\tbalances[_addr].d = tmpD;\n\t\t\t//remit money here.\n\t\t\temit TakeMoney(_addr, _t);\n\t\t\treturn true;\n\t\t}else\n\t\t\treturn false;\n\t}\n\n\t//This function returns true for test here.\n\tfunction verifyRangeProof(address _addr, uint256[] memory _proof, uint256[] memory _cArray, uint256[] memory _dArray, uint256 _c, uint256 _d)\n\tpublic view\n\treturns (bool result){\n\t\tuint256 productC = 1;\n\t\tuint256 productD = 1;\n\t\tresult = true;\n\t\tfor(uint i = 0; i <= 31; i += 1){\n\t\t\tproductC = mulmod(productC,_cArray[i],prime);\n\t\t\tproductD = mulmod(productD,_dArray[i],prime);\n\t\t\tresult = result && verifyMembership(_addr,_cArray[i],_dArray[i],(2**i),_proof[i*3],_proof[i*3+1],_proof[i*3+2]);\n\t\t}\n\t\tresult = result && ((_c == productC) ? true : false);\n\t\tresult = result && ((_d == productD) ? true : false);\n\t\treturn result;\n\t}\n\n\tfunction verifyMembership(address _addr, uint256 _p, uint256 _q, uint _mk,uint256 _proof1, uint256 _proof2,uint256 _proof3)\n\tpublic view\n\treturns (bool){\n\t\t//proof={proof1,proof2,proof3}={e1,s1,sk}\n\t\t//domain={m1,mk}={0,2^i}\n\t\tuint256 tmp = modInverse(modExp(publicKey[_addr],_proof1,prime),prime);//h^-e1\n\t\tuint256 Y1 = modExp(generator,_proof2,prime);\t\t\t\t\t\t//g^s1\n\t\tY1 = mulmod(Y1, tmp, prime);\t\t\t\t\t\t\t\t\t\t//Y1 = g^s1 * h^-e1\n\t\tuint256 Z1 = modExp(_p,_proof2,prime);\t\t\t\t\t\t\t    //P^s1\n\t\ttmp = modExp(_q,_proof1, prime);\t\t\t\t\t\t\t\t\t//[Q/(g^m1)]^e1\n\t\ttmp = modInverse(tmp,prime);\t\t\t\t\t\t\t\t\t\t//[Q/(g^m1)]^-e1\n\t\tZ1 = mulmod(Z1, tmp, prime);\t\t\t\t\t\t\t\t\t\t//Z1 = P^s1 * [Q/(g^m1)]^-e1\n\n\t\tuint256 e2 = myHash(Y1,Z1);\n\t\ttmp = modInverse(modExp(publicKey[_addr],e2,prime),prime);          //h^-ek, where ek=e2\n\t\tuint256 Yk = modExp(generator,_proof3,prime);\t\t\t\t\t\t//g^sk\n\t\tYk = mulmod(Yk, tmp, prime);\t\t\t\t\t\t\t\t\t\t//Yk = g^sk * h^-ek\n\t\tuint256 Zk = modExp(_p,_proof3,prime);\t\t\t\t\t\t\t    //P^sk\n\t\ttmp = modExp(generator,_mk,prime);\t\t\t\t\t\t\t\t\t//g^mk\n\t\ttmp = modInverse(tmp, prime);\t\t\t\t\t\t\t\t\t\t//1/(g^mk)\n\t\ttmp = mulmod(_q, tmp, prime);\t\t\t\t\t\t\t\t\t\t//Q/(g^mk)\n\t\ttmp = modExp(tmp, e2, prime);\t\t\t\t\t\t\t\t\t    //[Q/(g^mk)]^ek\n\t\ttmp = modInverse(tmp,prime);\t\t\t\t\t\t\t\t\t\t//[Q/(g^mk)]^-ek\n\t\tZk = mulmod(Zk, tmp, prime);\t\t\t\t\t\t\t\t\t\t//Zk = P^sk * [Q/(g^mk)]^-ek\n\n\t\treturn (_proof1 == myHash(Yk,Zk)?true:false);\n\t}\n\n\t//Calculate x**y mod |m| using a brute force approach, more efficient method will be added in the future.\n\tfunction modExp(uint256 _base, uint256 _exp, uint _mod) internal pure returns (uint256 result){\n\t\trequire(_base>0 && _exp>=0 && _mod>0,'x,y,z should be positives.');\n\t\tif(_exp==0){\n\t\t\treturn 1;\n\t\t}\n\t\tresult = 1;\n\t\tuint256 _tmpBase = _base;\n\t\tuint256 _tmpExp = _exp;\n\t\tuint256 _tmpMod = _mod;\n\t\tfor(uint count = 1; count <= _tmpExp; count *= 2){\n\t\t\tif(_tmpExp & count != 0)\n\t\t\t\tresult = mulmod(result, _tmpBase, _tmpMod);\n\t\t\t_tmpBase = mulmod(_tmpBase,_tmpBase,_tmpMod);\n\t\t}\n\t\treturn result;\n\t}\n\n\t//Calculate the modular multiplicative invserse of x using Fermat's Little Theorem\n\tfunction modInverse(uint256 _g, uint256 _n) internal pure returns (uint256){\n\t\treturn modExp(_g, _n-2, _n);\n\t}\n\n\tfunction myHash(uint256 _x, uint256 _y) public pure returns(uint256) {\n\t\treturn _x+_y;\n\t}\n\n\tfunction toBytes(uint256 _x) public pure returns(bytes memory b){\n        b = new bytes(32);\n        for (uint i = 0; i < 32; i++) {\n            b[i] = byte(uint8(_x / (2**(8*(31 - i)))));\n        }\n\t}\n}\n",
  "sourcePath": "/Users/tangzaiyang/Workspace/go-workspace/src/salary_demo/truffle/contracts/Salary.sol",
  "compiler": {
    "name": "solc",
    "version": "0.5.12+commit.7709ece9.Emscripten.clang"
  },
  "schemaVersion": "3.0.20",
  "updatedAt": "2020-03-04T07:08:02.990Z",
  "devdoc": {
    "methods": {}
  },
  "userdoc": {
    "methods": {}
  }
}